S0170000536572766F206E65772074727920312E73726563C4
S11300000C942A000C9434000C9434000C943400A6
S11300100C9434000C9434000C9434000C9434008C
S11300200C9434000C9434000C9434000C9434007C
S11300300C9434000C9434000C9434000C9434006C
S11300400C9434000C9434000C9434000C9434005C
S11300500C94340011241FBECFE5D8E0DEBFCDBF21
S11300600E9436000C9482000C9400008FEF87BB32
S113007018BA81BB12BA88E088BBEFE9FFE0319778
S1130080F1F700C0000018BAFFEF27EA31E6F1509B
S113009020403040E1F700C0000088BB8FE097E2C9
S11300A00197F1F700C0000018BA9FEFE7EAF1E604
S11300B09150E040F040E1F700C0000080E882BBCE
S11300C0EFE9FFE03197F1F700C0000012BAFFEF4B
S11300D027EA31E6F15020403040E1F700C000004B
S11300E082BB8FE097E20197F1F700C0000012BADB
S11300F09FEFE7EAF1E69150E040F040E1F700C0FD
S10B01000000B9CFF894FFCF11
S9030000FC
