:100000000C942A000C949A020C94B1020C944700B0
:100010000C9447000C9447000C9447000C94470044
:100020000C9447000C9447000C9447000C94740205
:100030000C9447000C9447000C9447000C94470024
:100040000C9447000C9447000C9447000C94470014
:100050000C94470011241FBECFE5D8E0DEBFCDBF12
:1000600010E0A0E6B0E0E6E9F2E102C005900D92F2
:10007000A23BB107D9F720E0A2EBB0E001C01D928E
:10008000A63CB207E1F70E94D7020C9449090C94F0
:1000900000002AB128692AB920B5266820BDDC01F4
:1000A000CB01880F991FAA1FBB1F880F991FAA1F7A
:1000B000BB1F9C01AD01220F331F441F551F220F90
:1000C000331F441F551F60E074E284EF90E00E94EC
:1000D00017068FEF820F89B9DA01C9010197A109CB
:1000E000B109892F9A2FAB2FBB2780BD08955F9B45
:1000F000FECF8CB108955D9BFECF8CB908950F9310
:100100001F93CF938C01C0E003C00E947B00CF5FA0
:10011000F801EC0FF11D80818111F7CFCF911F9174
:100120000F91089540E050E00BC000002F5F3F4F5B
:1001300002C020E030E02E313105B8F34F5F5F4F51
:1001400048175907B0F308958CB95D9BFECF089509
:10015000EF92FF920F931F93CF93DF937C01FC01EB
:1001600001900020E9F731978F01081B190BC0E0BF
:10017000D0E007C0F701EC0FFD1F80810E94A400B2
:100180002196C017D107B4F3DF91CF911F910F9142
:10019000FF90EF90089584E690E00E94A8008DE023
:1001A0000E94A4008AE00E94A40088EE93E00E94CE
:1001B00092008EE690E00E94A8008DE00E94A400CC
:1001C0008AE00E94A40088EE93E00E94920088E7F3
:1001D00090E00E94A80082E20E94A40081E890E0E2
:1001E0000E94A80082E20E94A4008DE00E94A40068
:1001F0008AE00E94A40088EE93E00E9492008FE8BB
:1002000090E00E94A8008DE00E94A4008AE00E9475
:10021000A40088EE93E00E9492008AE10E94A4006C
:1002200088EE93E00E94920088EE93E00E94920094
:100230008DE990E00E94A8008DE00E94A4008AE071
:100240000E94A40088EE93E00E949200089510BCE2
:100250008CE089B98BB182608BB988E18AB98EE86C
:1002600080BD08950F931F93CF93DF9300D000D0EC
:100270001F92CDB7DEB787EA90E00E947F000E9410
:10028000770020E030E00DC089010F5F1F4FE1E0F3
:10029000F0E0EC0FFD1FE20FF31F80830E94770058
:1002A00098018C3289F78E010F5F1F4FF801E20F22
:1002B000F31F1082C8010E94390690936100809359
:1002C000600085E0F80111928A95E9F70E947700B5
:1002D00020E030E00DC089010F5F1F4FE1E0F0E04A
:1002E000EC0FFD1FE20FF31F80830E94770098013F
:1002F0008A3089F7E1E0F0E0EC0FFD1FE20FF31F19
:100300001082CE0101960E9439069093630080937B
:1003100062000F900F900F900F900F90DF91CF9190
:100320001F910F91089581B3837F81BB82B38C604D
:1003300082BB0895CF92DF92EF92FF926091BA0054
:100340007091BB0080E090E00E941C0520E030E04E
:1003500040EA51E40E947B0429E23CE543E252E496
:100360000E94AA056B017C016091B2007091B300FC
:100370008091B4009091B5000E941C05A7019601E0
:100380000E940F040E94ED046093B2007093B300CA
:100390008093B4009093B5006091BC007091BD0053
:1003A00080E090E00E941C0520E030E040EA51E44B
:1003B0000E947B0429E23CE543E252E40E94AA0544
:1003C0006B017C016091B6007091B7008091B8001C
:1003D0009091B9000E941C05A70196010E940F048C
:1003E0000E94ED046093B6007093B7008093B8004C
:1003F0009093B9006091BA007091BB0080E090E0EA
:100400000E941C052EE73AE64CE35FE30E947B0462
:1004100020E030E040EA51E40E947B0420E030E03C
:1004200040E752E40E94AA050E94ED046093BE00DA
:100430007093BF008093C0009093C1006091BC0096
:100440007091BD0080E090E00E941C052EE73AE626
:100450004CE35FE30E947B0420E030E040EA51E49B
:100460000E947B0420E030E040E752E40E94AA05AD
:100470000E94ED046093C2007093C3008093C40097
:100480009093C5001092BB001092BA001092BD006C
:100490001092BC0084E682BFFF90EF90DF90CF9077
:1004A000089580916000909161004F9734F08091A1
:1004B0006200909163004F9764F460E080E00E94D6
:1004C000C60360E080E00E94EA0382B3806482BBDE
:1004D000089582B38F7B82BB089584E682BF85E056
:1004E00083BF81E089BF08951F920F920FB60F92CC
:1004F00011242F933F934F935F936F937F938F9329
:100500009F93AF93BF93EF93FF930E949A010E9432
:100510005102FF91EF91BF91AF919F918F917F9188
:100520006F915F914F913F912F910F900FBE0F9060
:100530001F9018951F920F920FB60F9211248F9350
:100540009F938091BA009091BB0001969093BB005D
:100550008093BA009F918F910F900FBE0F901F90C4
:1005600018951F920F920FB60F9211248F939F939D
:100570008091BC009091BD0001969093BD00809346
:10058000BC009F918F910F900FBE0F901F901895F8
:100590000E94B8030E94930180E48BBF83E085BF73
:1005A00080E88BBF8CE085BF0E946D020895CF93D9
:1005B000DF93CDB7DEB7C456D1090FB6F894DEBFCE
:1005C0000FBECDBF81E084BB87B3816087BB87B39B
:1005D000826087BB81B3806481BB60E875E280E0A4
:1005E00090E00E9449000E94C80288B38E7F88BBB9
:1005F00088B38D7F88BB0E9432018FE39CE901970D
:10060000F1F700C00000E0E6F0E083818F93828183
:100610008F9381818F9380818F938BEA90E09F935A
:100620008F938E010F5F1F4F1F930F930E945F06E2
:10063000C8010E947F008091B6009091B700A09100
:10064000B800B091B9000FB6F894DEBF0FBECDBFB1
:100650008D3216E09107A105B10508F074C0843F02
:1006600021E09207A105B105D8F56FEF81E00E9466
:10067000C6036FEF82E00E94EA038091B60090917A
:10068000B700A091B800B091B9008D3731E0930761
:10069000A105B10508F4A9CF44EF51E060E070E096
:1006A0008A019B01081B190B2A0B3B0BC901B801DE
:1006B0002AE030E040E050E00E941706122F110FB0
:1006C000812F880F880F180F153008F410E0612F64
:1006D00081E00E94C603612F82E00E94EA0385CF79
:1006E000AC01BD01445F51406109710940355105BC
:1006F0006105710548F460E080E00E94C60366E988
:1007000082E00E94EA0371CF84349240A105B105D2
:1007100089F460E080E00E94C60360E080E00E940F
:10072000EA036FEF81E00E94C6036FEF82E00E9450
:10073000EA035BCF6FEF81E00E94C6036FEF82E0B8
:100740000E94EA0352CF60E080E00E94C60360E0AE
:1007500080E00E94EA0388B38E7F88BB88B3826002
:1007600088BB80E895E20E9427010E94CB003DCF24
:1007700081EA8FBD83E08EBD81B3806281BB81B38E
:10078000806181BB84B38C6384BB0895811107C0F1
:1007900085B38B7F85BB85B3877F85BB11C08230D6
:1007A00039F485B38B7F85BB85B3886085BB08C072
:1007B000813031F485B3877F85BB85B3846085BB89
:1007C0009FB78FB780688FBFF89470E07BBD6ABD1C
:1007D0009FBF0895811107C085B38F7E85BB85B308
:1007E0008F7D85BB11C0823039F485B38F7E85BB88
:1007F00085B3806285BB08C0813031F485B38F7DBD
:1008000085BB85B3806185BB9FB78FB780688FBF7D
:10081000F89470E079BD68BD9FBF08955058BB271C
:10082000AA270E9426040C9470050E94620538F0E5
:100830000E94690520F039F49F3F19F426F40C94C6
:100840005F050EF4E095E7FB0C945905E92F0E9433
:10085000810558F3BA17620773078407950720F0DC
:1008600079F4A6F50C94A3050EF4E0950B2EBA2F9F
:10087000A02D0B01B90190010C01CA01A0011124A6
:10088000FF27591B99F0593F50F4503E68F11A1652
:10089000F040A22F232F342F4427585FF3CF4695E3
:1008A00037952795A795F0405395C9F77EF41F1605
:1008B000BA0B620B730B840BBAF09150A1F0FF0FCF
:1008C000BB1F661F771F881FC2F70EC0BA0F621FBB
:1008D000731F841F48F4879577956795B795F795AB
:1008E0009E3F08F0B0CF9395880F08F09927EE0F40
:1008F0009795879508950E948F040C9470050E9427
:10090000690558F00E94620540F029F45F3F29F024
:100910000C94590551110C94A4050C945F050E9488
:10092000810568F39923B1F3552391F3951B550B7A
:10093000BB27AA2762177307840738F09F5F5F4FB2
:10094000220F331F441FAA1FA9F335D00E2E3AF0F1
:10095000E0E832D091505040E695001CCAF72BD009
:10096000FE2F29D0660F771F881FBB1F261737075A
:100970004807AB07B0E809F0BB0B802DBF01FF278C
:1009800093585F4F3AF09E3F510578F00C9459050B
:100990000C94A4055F3FE4F3983ED4F386957795D5
:1009A0006795B795F7959F5FC9F7880F911D969545
:1009B000879597F90895E1E0660F771F881FBB1FA1
:1009C000621773078407BA0720F0621B730B840B4E
:1009D000BA0BEE1F88F7E09508950E94890588F00C
:1009E0009F5798F0B92F9927B751B0F0E1F0660FF3
:1009F000771F881F991F1AF0BA95C9F714C0B13034
:100A000091F00E94A305B1E008950C94A305672F0F
:100A1000782F8827B85F39F0B93FCCF38695779562
:100A20006795B395D9F73EF490958095709561954B
:100A30007F4F8F4F9F4F0895E89409C097FB3EF476
:100A400090958095709561957F4F8F4F9F4F99231B
:100A5000A9F0F92F96E9BB279395F6958795779599
:100A60006795B795F111F8CFFAF4BB0F11F460FF59
:100A70001BC06F5F7F4F8F4F9F4F16C0882311F0B1
:100A800096E911C0772321F09EE8872F762F05C0C5
:100A9000662371F096E8862F70E060E02AF09A9560
:100AA000660F771F881FDAF7880F9695879597F955
:100AB000089597F99F6780E870E060E008959FEFE0
:100AC00080EC089500240A941616170618060906E5
:100AD000089500240A9412161306140605060895B4
:100AE000092E0394000C11F4882352F0BB0F40F43C
:100AF000BF2B11F460FF04C06F5F7F4F8F4F9F4F7C
:100B0000089557FD9058440F551F59F05F3F71F0FD
:100B10004795880F97FB991F61F09F3F79F0879564
:100B20000895121613061406551FF2CF4695F1DFED
:100B300008C0161617061806991FF1CF869571057D
:100B4000610508940895E894BB2766277727CB01B1
:100B500097F908950E94BD050C9470050E946205E6
:100B600038F00E94690520F0952311F00C94590586
:100B70000C945F0511240C94A4050E94810570F368
:100B8000959FC1F3950F50E0551F629FF001729F32
:100B9000BB27F00DB11D639FAA27F00DB11DAA1F41
:100BA000649F6627B00DA11D661F829F2227B00D8E
:100BB000A11D621F739FB00DA11D621F839FA00D19
:100BC000611D221F749F3327A00D611D231F849F69
:100BD000600D211D822F762F6A2F11249F575040C0
:100BE0009AF0F1F088234AF0EE0FFF1FBB1F661F3B
:100BF000771F881F91505040A9F79E3F510580F004
:100C00000C9459050C94A4055F3FE4F3983ED4F38B
:100C1000869577956795B795F795E7959F5FC1F7A7
:100C2000FE2B880F911D9695879597F90895A1E25F
:100C30001A2EAA1BBB1BFD010DC0AA1FBB1FEE1F56
:100C4000FF1FA217B307E407F50720F0A21BB30BA1
:100C5000E40BF50B661F771F881F991F1A9469F71D
:100C600060957095809590959B01AC01BD01CF0179
:100C70000895FC0188279927E89421912032E9F30F
:100C8000293010F02E30C8F32B3241F02D3239F4D8
:100C9000689404C00E945706820F911D2191205331
:100CA0002A30C0F31EF4909581959F4F08957AE005
:100CB000979F902D879F802D910D11240895AEE070
:100CC000B0E0E5E6F6E00C9420090D891E8986E087
:100CD0008C831A8309838FEF9FE79E838D83AE01F8
:100CE000475E5F4F6F89788DCE0101960E94810625
:100CF000EF81F885E00FF11F10822E96E4E00C944E
:100D00003C09ABE0B0E0E7E8F6E00C9412096C01B6
:100D10007B018A01FC0117821682838181FFCCC18D
:100D2000CE0101963C01F6019381F70193FD859177
:100D300093FF81917F01882309F4BAC1853239F488
:100D400093FD859193FF81917F01853229F4B6014E
:100D500090E00E947808E7CF912C212C312CFFE104
:100D6000F315D8F08B3279F038F4803279F0833291
:100D7000A1F4232D20611DC08D3261F0803369F410
:100D8000232D216016C0832D8260382EE32DE46070
:100D90003E2E2AC0F32DF8601DC037FC2DC020ED7B
:100DA000280F2A3040F08E32B9F436FC81C1232D51
:100DB0002064322E19C036FE06C08AE0989E200DAF
:100DC0001124922E11C0EAE02E9E200D1124222E15
:100DD000F32DF0623F2E08C08C3621F4832D8068FD
:100DE000382E02C0883641F4F70193FD859193FFB8
:100DF00081917F018111B3CF982F9F7D95549330BE
:100E000028F40C5F1F4F9FE399830DC0833631F0A8
:100E1000833771F0833509F059C021C0F801808112
:100E200089830E5F1F4F88248394912C530113C034
:100E30002801F2E04F0E511CF801A080B18036FE6F
:100E400003C0692D70E002C06FEF7FEFC5010E9403
:100E50006D084C018201F32DFF773F2E16C028014B
:100E600022E0420E511CF801A080B18036FE03C082
:100E7000692D70E002C06FEF7FEFC5010E9462082C
:100E80004C01F32DF0683F2E820133FC1BC0822DF4
:100E900090E088169906B0F4B60180E290E00E94D6
:100EA00078082A94F4CFF50137FC859137FE8191BB
:100EB0005F01B60190E00E94780821102A9421E099
:100EC000821A91088114910471F7E8C0843611F0F8
:100ED000893641F5F80137FE07C060817181828152
:100EE00093810C5F1F4F08C060817181072E000C39
:100EF000880B990B0E5F1F4FF32DFF763F2E97FF48
:100F000009C090958095709561957F4F8F4F9F4F49
:100F1000F0683F2E2AE030E0A3010E94B408882E3A
:100F2000861845C0853731F4232D2F7EB22E2AE056
:100F300030E025C0932D997FB92E8F36C1F018F47B
:100F4000883579F0B5C0803719F0883721F0B0C006
:100F5000E92FE061BE2EB4FE0DC0FB2DF460BF2E64
:100F600009C034FE0AC0292F2660B22E06C028E030
:100F700030E005C020E130E002C020E132E0F801BD
:100F8000B7FE07C060817181828193810C5F1F4F22
:100F900006C06081718180E090E00E5F1F4FA30169
:100FA0000E94B408882E8618FB2DFF773F2E36FE50
:100FB0000DC0232D2E7FA22E891458F434FE0BC0B1
:100FC00032FC09C0832D8E7EA82E05C0B82CA32C20
:100FD00003C0B82C01C0B92CA4FE0FC0FE01E80D5F
:100FE000F11D8081803321F49A2D997EA92E09C0AC
:100FF000A2FE06C0B394B39404C08A2D867809F08B
:10100000B394A3FC11C0A0FE06C0B21488F4280C4F
:10101000922C9B180EC0B21460F4B60180E290E0EE
:101020000E947808B394F7CFB21418F42B1802C0BA
:10103000982C212CA4FE10C0B60180E390E00E9401
:101040007808A2FE17C0A1FC03C088E790E002C0A8
:1010500088E590E0B6010CC08A2D867859F0A1FE93
:1010600002C08BE201C080E2A7FC8DE2B60190E0F5
:101070000E947808891438F4B60180E390E00E9459
:1010800078089A94F7CF8A94F301E80DF11D8081D6
:10109000B60190E00E9478088110F5CF222009F473
:1010A00042CEB60180E290E00E9478082A94F6CF02
:1010B000F6018681978102C08FEF9FEF2B96E2E1C8
:1010C0000C942E09FC010590615070400110D8F776
:1010D000809590958E0F9F1F0895FC016150704080
:1010E00001900110D8F7809590958E0F9F1F08955D
:1010F0000F931F93CF93DF93FB01238121FD03C047
:101100008FEF9FEF2CC022FF16C0468157812481AC
:1011100035814217530744F4A081B1819D012F5FAF
:101120003F4F318320838C93268137812F5F3F4F40
:101130003783268314C08B01EC01FB010084F18509
:10114000E02D0995892BE1F6D80116968D919C9199
:101150001797019617969C938E931697CE01DF9161
:10116000CF911F910F910895FA01AA27283051F1CC
:10117000203181F1E8946F936E7F6E5F7F4F8F4FC8
:101180009F4FAF4FB1E03ED0B4E03CD0670F781F27
:10119000891F9A1FA11D680F791F8A1F911DA11D0C
:1011A0006A0F711D811D911DA11D20D009F4689445
:1011B0003F912AE0269F11243019305D3193DEF6ED
:1011C000CF010895462F4770405D4193B3E00FD0A3
:1011D000C9F7F6CF462F4F70405D4A3318F0495D8E
:1011E00031FD4052419302D0A9F7EACFB4E0A69571
:1011F0009795879577956795BA95C9F70097610593
:10120000710508959B01AC010A2E069457954795E8
:1012100037952795BA95C9F7620F731F841F951FDD
:10122000A01D08952F923F924F925F926F927F92EE
:101230008F929F92AF92BF92CF92DF92EF92FF92E6
:101240000F931F93CF93DF93CDB7DEB7CA1BDB0B92
:101250000FB6F894DEBF0FBECDBF09942A88398837
:1012600048885F846E847D848C849B84AA84B9843E
:10127000C884DF80EE80FD800C811B81AA81B9814A
:10128000CE0FD11D0FB6F894DEBF0FBECDBFED015E
:061290000895F894FFCF61
:101296001F001F0041542B434D47443D310041542C
:1012A6002B434D47463D310041542B434D47573D57
:1012B600002B39313938313233343536373800522C
:1012C6006F626F7420697320686572650041542BE4
:1012D600434D53533D31000D440D0025642C2564C8
:0212E6000A00FC
:00000001FF
