:100000000C942A000C943C000C943C000C943C0092
:100010000C943C000C943C000C943C000C943C0070
:100020000C943C000C943C000C943C000C943C0060
:100030000C943C000C943C000C943C000C943C0050
:100040000C943C000C943C000C943C000C943C0040
:100050000C943C0011241FBECFE5D4E0DEBFCDBF21
:1000600020E0A0E6B0E001C01D92AE36B207E1F795
:100070000E94C5000C94D3000C94000011B888E4D1
:1000800080B9089594EA96BF06B607FEFDCF91B1F8
:10009000987F983071F483B984E886BF06B607FE6E
:1000A000FDCF81B1887F883131F0803231F083E03B
:1000B000089580E0089581E0089582E0089594EA2B
:1000C00096BF06B607FEFDCF91B1987F903171F4CF
:1000D00083B984E886BF06B607FEFDCF81B1887F6D
:1000E000803431F0803231F083E0089580E008956B
:1000F00081E0089582E0089584E986BF06B604FC95
:10010000FDCF089583B984E886BF06B607FEFDCF0C
:1001100081B1887F883221F0803321F082E0089518
:1001200080E0089581E0089584EC86BF06B607FE5E
:10013000FDCF83B190E0089584E886BF06B607FE40
:10014000FDCF83B190E00895CF93C82F80ED0E943A
:1001500042008C2F0E94820081ED0E945F000E946D
:10016000940090936300809362000E9494009093A7
:100170006500809364000E949C00909367008093C8
:1001800066000E947C00CF9108950E943E0080E0AE
:100190000E94A4008091660086FFF9CF109267004C
:0A01A00010926600F4CFF894FFCF30
:00000001FF
