S00B00007A61702E73726563CE
S11300000C942A000C943F000C943F000C943F0085
S11300100C943F000C943F000C943F000C943F0060
S11300200C943F000C943F000C943F000C943F0050
S11300300C943F000C943F000C943F000C943F0040
S11300400C943F000C943F000C943F000C943F0030
S11300500C943F0011241FBECFE5D8E0DEBFCDBF16
S113006010E0A0E6B0E0ECEBF1E002C005900D92E8
S1130070A43AB107D9F70E94D6000C94DC000C9482
S1130080000040E050E00BC000002F5F3F4F02C073
S113009020E030E02E313105B8F34F5F5F4F481751
S11300A05907B0F308958CB95D9BFECF0895EF9284
S11300B0FF920F931F93CF93DF937C01FC01019078
S11300C00020E9F731978F01081B190BC0E0D0E03D
S11300D007C0F701EC0FFD1F80810E945300219699
S11300E0C017D107B4F3DF91CF911F910F91FF9007
S11300F0EF90089580E690E00E9457008DE00E9402
S113010053008AE00E94530088EE93E00E9441006D
S11301108AE690E00E9457008DE00E9453008AE036
S11301200E94530088EE93E00E94410084E790E02F
S11301300E94570082E20E9453008DE790E00E94E3
S1130140570082E20E9453008DE00E9453008AE02F
S11301500E94530088EE93E00E9441008BE890E0F7
S11301600E9457008DE00E9453008AE00E945300D1
S113017088EE93E00E9441008AE10E94530088EED9
S113018093E00E94410088EE93E00E94410089E9D7
S113019090E00E9457008DE00E9453008AE00E9484
S11301A0530088EE93E00E944100089581E084BBEF
S10F01B078940E947A00FDCFF894FFCFF1
S11301BC41542B434D47443D310041542B434D474F
S11301CC463D310041542B434D47573D002B3931AB
S11301DC3938313233343536373800526F626F74F4
S11301EC20697320686572650041542B434D535349
S10701FC3D3100008D
S9030000FC
