S00D00004D6F746F722E7372656306
S11300000C942A000C9400020C9417020C944700E0
S11300100C9447000C9447000C9447000C94470040
S11300200C9447000C9447000C9447000C94DC019A
S11300300C9447000C9447000C9447000C94470020
S11300400C9447000C9447000C9447000C94470010
S11300500C94470011241FBECFE5D8E0DEBFCDBF0E
S113006010E0A0E6B0E0E2E4FBE002C005900D92EF
S1130070AA36B107D9F720E0AAE6B0E001C01D9284
S1130080AE37B207E1F70E943E020C949F050C9430
S1130090000081B3806481BB82B3806482BB2FEF94
S11300A083ED90E3215080409040E1F700C00000D0
S11300B082B38F7B82BB2FEF83ED90E3215080408E
S11300C09040E1F700C00000E7CF98B39F70282F5D
S11300D0207F922B98BB98B39E7F98BB98B3926075
S11300E098BB35E03A95F1F7000098B39D7F98BB33
S11300F0EFE1F3E03197F1F700C0000028B3F0E13D
S11301008F9FC0011124922F9F70892B88BB88B3C5
S1130110826088BB35E03A95F1F7000088B38D7FA3
S113012088BB8FE39FE10197F1F700C000000895B9
S11301308FEF87BB8FE59AEE0197F1F700C00000BF
S113014082E00E94650088E20E9465008CE00E94C3
S1130150650086E00E94650081E00E9465008FE3EF
S11301609FE10197F1F700C000000895FC0160E0F1
S113017070E034C088B38F70907F982B98BB88B39D
S1130180816088BB88B3826088BB85E08A95F1F77B
S1130190000088B38D7F88BB8FE193E00197F1F76E
S11301A000C0000048B39C9180E1989F9001112405
S11301B0942F9F70292B28BB98B3926098BB95E02D
S11301C09A95F1F7000098B39D7F98BB8FE39FE168
S11301D00197F1F700C000006F5F7F4FDF01A60FAA
S11301E0B71F9C919111C6CF0895CF93DF9300D090
S11301F0CDB7DEB790E8998390EC9A83E62FF0E0D0
S1130200319721E030E02C0F3D1FE20FF31F908166
S1130210890F81500E9465008FE891E00197F1F702
S113022000C000000F900F90DF91CF91089581B32B
S1130230837F81BB82B38C6082BB0895CF92DF92AF
S1130240EF92FF92609172007091730080E090E0F1
S11302500E944D0420E030E040EA51E40E94AC03E7
S113026029E23CE543E252E40E94DB046B017C0199
S113027060916A0070916B0080916C0090916D00A8
S11302800E944D04A70196010E9440030E941E048F
S113029060936A0070936B0080936C0090936D0080
S11302A0609174007091750080E090E00E944D04AC
S11302B020E030E040EA51E40E94AC0329E23CE54E
S11302C043E252E40E94DB046B017C0160916E0006
S11302D070916F0080917000909171000E944D04A4
S11302E0A70196010E9440030E941E0460936E00C1
S11302F070936F008093700090937100609172000E
S11303007091730080E090E00E944D042EE73AE67D
S11303104CE35FE30E94AC0320E030E040EA51E4A8
S11303200E94AC0320E030E040E752E40E94DB048A
S11303300E941E0460937600709377008093780087
S113034090937900609174007091750080E090E062
S11303500E944D042EE73AE64CE35FE30E94AC03AF
S113036020E030E040EA51E40E94AC0320E030E0B9
S113037040E752E40E94DB040E941E0460937A006A
S113038070937B0080937C0090937D0010927300A7
S113039010927200109275001092740084E682BF6D
S11303A0FF90EF90DF90CF90089584E682BF85E0C0
S11303B083BF81E089BF08951F920F920FB60F92F9
S11303C011242F933F934F935F936F937F938F9356
S11303D09F93AF93BF93EF93FF930E941E01FF91EE
S11303E0EF91BF91AF919F918F917F916F915F91A9
S11303F04F913F912F910F900FBE0F901F90189522
S11304001F920F920FB60F9211248F939F93809196
S11304107200909173000196909373008093720020
S11304209F918F910F900FBE0F901F9018951F9260
S11304300F920FB60F9211248F939F9380917400A3
S113044090917500019690937500809374009F912C
S11304508F910F900FBE0F901F9018950E94EF027E
S11304600E941701789480E48BBF83E085BF80E805
S11304708BBF8CE085BF0E94D5010895CF93DF9395
S113048000D000D0CDB7DEB70E942E020E949800A3
S113049061E081E00E94F50080E690E00E94B600F1
S11304A061E08AE00E94F5004AE0BE016F5F7F4F81
S11304B080916E0090916F000E946A05CE010196B2
S11304C00E94B60080916E0090916F00A091700020
S11304D0B0917100893E03E09007A105B10508F0D1
S11304E074C0843F11E09107A105B105D8F56FEF01
S11304F081E00E94FD026FEF82E00E941E03809162
S11305006E0090916F00A0917000B09171008D37D2
S113051021E09207A105B10508F4BACF44EF51E0F8
S113052060E070E08A019B01081B190B2A0B3B0B4E
S1130530C901B8012AE030E040E050E00E944805DB
S1130540122F110F812F880F880F180F153008F400
S113055010E0612F81E00E94FD02612F82E00E9481
S11305601E0396CFAC01BD01445F5140610971097E
S1130570403551056105710548F460E080E00E9452
S1130580FD0266E982E00E941E0382CF8434924019
S1130590A105B10589F460E080E00E94FD0260E0FD
S11305A080E00E941E036FEF81E00E94FD026FEF66
S11305B082E00E941E036CCF6FEF81E00E94FD0277
S11305C06FEF82E00E941E0363CF60E080E00E9430
S11305D0FD0260E080E00E941E030E94490081EA5F
S11305E08FBD83E08EBD81B3806281BB81B38061A6
S11305F081BB84B38C6384BB0895811107C085B328
S11306008B7F85BB85B3877F85BB11C0823039F46E
S113061085B38B7F85BB85B3886085BB08C081307B
S113062031F485B3877F85BB85B3846085BB8FB781
S1130630F89470E07BBD6ABD8FBF0895811107C037
S113064085B38F7E85BB85B38F7D85BB11C082301A
S113065039F485B38F7E85BB85B3806285BB08C0C2
S1130660813031F485B38F7D85BB85B3806185BBD3
S11306708FB7F89470E079BD68BD8FBF0895505866
S1130680BB27AA270E9457030C94A1040E94930439
S113069038F00E949A0420F039F49F3F19F426F4AC
S11306A00C9490040EF4E095E7FB0C948A04E92F73
S11306B00E94B20458F3BA176207730784079507B8
S11306C020F079F4A6F50C94D4040EF4E0950B2EE6
S11306D0BA2FA02D0B01B90190010C01CA01A00190
S11306E01124FF27591B99F0593F50F4503E68F1EB
S11306F01A16F040A22F232F342F4427585FF3CF2C
S1130700469537952795A795F0405395C9F77EF4FC
S11307101F16BA0B620B730B840BBAF09150A1F045
S1130720FF0FBB1F661F771F881FC2F70EC0BA0FCB
S1130730621F731F841F48F4879577956795B79553
S1130740F7959E3F08F0B0CF9395880F08F099274E
S1130750EE0F9795879508950E94C0030C94A10409
S11307600E949A0458F00E94930440F029F45F3FD9
S113077029F00C948A0451110C94D5040C9490041F
S11307800E94B20468F39923B1F3552391F3951BA6
S1130790550BBB27AA2762177307840738F09F5F9E
S11307A05F4F220F331F441FAA1FA9F335D00E2E0B
S11307B03AF0E0E832D091505040E695001CCAF778
S11307C02BD0FE2F29D0660F771F881FBB1F26173B
S11307D037074807AB07B0E809F0BB0B802DBF0112
S11307E0FF2793585F4F3AF09E3F510578F00C94E1
S11307F08A040C94D5045F3FE4F3983ED4F38695C1
S113080077956795B795F7959F5FC9F7880F911D01
S11308109695879597F90895E1E0660F771F881FED
S1130820BB1F621773078407BA0720F0621B730BA0
S1130830840BBA0BEE1F88F7E09508950E94BA0462
S113084088F09F5798F0B92F9927B751B0F0E1F08D
S1130850660F771F881F991F1AF0BA95C9F714C03D
S1130860B13091F00E94D404B1E008950C94D40402
S1130870672F782F8827B85F39F0B93FCCF3869576
S113088077956795B395D9F73EF4909580957095D3
S113089061957F4F8F4F9F4F0895E89409C097FB50
S11308A03EF490958095709561957F4F8F4F9F4F43
S11308B09923A9F0F92F96E9BB279395F695879587
S11308C077956795B795F111F8CFFAF4BB0F11F44A
S11308D060FF1BC06F5F7F4F8F4F9F4F16C08823F1
S11308E011F096E911C0772321F09EE8872F762F27
S11308F005C0662371F096E8862F70E060E02AF068
S11309009A95660F771F881FDAF7880F9695879553
S113091097F9089597F99F6780E870E060E008957B
S11309209FEF80EC089500240A9416161706180603
S11309300906089500240A941216130614060506DF
S11309400895092E0394000C11F4882352F0BB0F70
S113095040F4BF2B11F460FF04C06F5F7F4F8F4FD3
S11309609F4F089557FD9058440F551F59F05F3F0E
S113097071F04795880F97FB991F61F09F3F79F0BD
S113098087950895121613061406551FF2CF46953F
S1130990F1DF08C0161617061806991FF1CF8695C1
S11309A07105610508940895E894BB2766277727A5
S11309B0CB0197F908950E94EE040C94A1040E94BF
S11309C0930438F00E949A0420F0952311F00C94BB
S11309D08A040C94900411240C94D5040E94B2044B
S11309E070F3959FC1F3950F50E0551F629FF0017E
S11309F0729FBB27F00DB11D639FAA27F00DB11D97
S1130A00AA1F649F6627B00DA11D661F829F22271F
S1130A10B00DA11D621F739FB00DA11D621F839FA6
S1130A20A00D611D221F749F3327A00D611D231F7C
S1130A30849F600D211D822F762F6A2F11249F57CA
S1130A4050409AF0F1F088234AF0EE0FFF1FBB1FCD
S1130A50661F771F881F91505040A9F79E3F51058C
S1130A6080F00C948A040C94D5045F3FE4F3983E20
S1130A70D4F3869577956795B795F795E7959F5F36
S1130A80C1F7FE2B880F911D9695879597F90895C8
S1130A90A1E21A2EAA1BBB1BFD010DC0AA1FBB1F7E
S1130AA0EE1FFF1FA217B307E407F50720F0A21BF0
S1130AB0B30BE40BF50B661F771F881F991F1A945D
S1130AC069F760957095809590959B01AC01BD0187
S1130AD0CF010895BB274A3031F4992322F4BDE2B3
S1130AE0909581959F4F0C947605BB27FB01552764
S1130AF0AA27880F991FAA1FA41710F0A41B839577
S1130B005051B9F7A05DAA3308F0A95DA1930097ED
S1130B1079F7B111B1931192CB010C948F05DC01DB
S1130B20FC01672F71917723E1F7329704C07C9120
S1130B306D9370836291AE17BF07C8F30895F8945C
S1050B40FFCFE1
S10D0B4244495354414E43453A0020
S9030000FC
