S01500003420556C747261736F6E6963732E7372656324
S11300000C942A000C9447000C9447000C9447006D
S11300100C9447000C9447000C9447000C94470040
S11300200C9447000C9447000C9447000C94470030
S11300300C9447000C9447000C9447000C94470020
S11300400C9447000C9447000C9447000C94470010
S11300500C94470011241FBECFE5D8E0DEBFCDBF0E
S113006010E0A0E6B0E0ECEDFAE002C005900D92DD
S1130070A237B107D9F720E0A2E7B0E001C01D9292
S1130080A638B207E1F70E9451020C946C050C9457
S1130090000098B39F70282F207F922B98BB98B3B1
S11300A09E7F98BB98B3926098BB35E03A95F1F780
S11300B0000098B39D7F98BBEFE1F3E03197F1F72F
S11300C000C0000028B3F0E18F9FC0011124922FDB
S11300D09F70892B88BB88B3826088BB35E03A95D2
S11300E0F1F7000088B38D7F88BB8FE39FE1019710
S11300F0F1F700C0000008958FEF87BB8FE59AEEFB
S11301000197F1F700C0000082E00E94490088E2F4
S11301100E9449008CE00E94490086E00E94490048
S113012081E00E9449008FE39FE10197F1F700C04D
S113013000000895FC0160E070E034C088B38F7063
S1130140907F982B98BB88B3816088BB88B382600A
S113015088BB85E08A95F1F7000088B38D7F88BB62
S11301608FE193E00197F1F700C0000048B39C9140
S113017080E1989F90011124942F9F70292B28BB14
S113018098B3926098BB95E09A95F1F7000098B304
S11301909D7F98BB8FE39FE10197F1F700C00000BA
S11301A06F5F7F4FDF01A60FB71F9C919111C6CFE0
S11301B0089581E00E9449008FE39FE10197F1F7E0
S11301C000C0000080E80E9449000895CF93DF93A7
S11301D000D0CDB7DEB790E8998390EC9A83E62FF0
S11301E0F0E0319721E030E02C0F3D1FE20FF31FC8
S11301F09081890F81500E9449008FE891E0019716
S1130200F1F700C000000F900F90DF91CF91089597
S11302108AB381608ABB8AB382608ABB8AB38460F2
S11302208ABB8AB388608ABB08958BB381608BBB19
S113023080E58A95F1F78BB38E7F8BBB08958BB3E2
S113024082608BBB80E58A95F1F78BB38D7F8BBB86
S1130250089580E090E0DC0105C0CE990AC00196C3
S1130260A11DB11D803C27E2920729E0A207B10538
S1130270A0F31FBC82E08EBD1DBC1CBC80E090E0DE
S1130280DC010AC0CE9B0FC02CB53DB521363A4ED9
S113029050F40196A11DB11D803C27E2920729E08C
S11302A0A207B10578F3803C9742A940B10581F0DB
S11302B08CB59DB5A0E0B0E01EBC81362AEE920755
S11302C0A105B10540F4B695A7959795879508952E
S11302D08EEF9FEF08958EEF9FEF089580E090E0FA
S11302E0DC0105C0B2990AC00196A11DB11D803C74
S11302F027E2920729E0A207B105A0F31FBC82E020
S11303008EBD1DBC1CBC80E090E0DC010AC0B29B29
S11303100FC02CB53DB521363A4E50F40196A11DBF
S1130320B11D803C27E2920729E0A207B10578F3CA
S1130330803C9742A940B10581F08CB59DB5A0E001
S1130340B0E01EBC81362AEE9207A105B10540F447
S1130350B695A7959795879508958EEF9FEF089585
S11303608EEF9FEF08958BB384608BBB80E58A95F5
S1130370F1F78BB38B7F8BBB08958BB388608BBBFA
S113038080E58A95F1F78BB3877F8BBB089580E076
S113039090E0DC0105C09E990AC00196A11DB11D23
S11303A0803C27E2920729E0A207B105A0F31FBC15
S11303B082E08EBD1DBC1CBC80E090E0DC010AC064
S11303C09E9B0FC02CB53DB521363A4E50F4019694
S11303D0A11DB11D803C27E2920729E0A207B105C7
S11303E078F3803C9742A940B10581F08CB59DB566
S11303F0A0E0B0E01EBC81362AEE9207A105B1054B
S113040040F4B695A7959795879508958EEF9FEF3D
S113041008958EEF9FEF089580E090E0DC0105C021
S11304209F990AC00196A11DB11D803C27E2920745
S113043029E0A207B105A0F31FBC82E08EBD1DBC5C
S11304401CBC80E090E0DC010AC09F9B0FC02CB56F
S11304503DB521363A4E50F40196A11DB11D803CA4
S113046027E2920729E0A207B10578F3803C97427E
S1130470A940B10581F08CB59DB5A0E0B0E01EBCEB
S113048081362AEE9207A105B10540F4B695A795E9
S11304909795879508958EEF9FEF08958EEF9FEFC0
S11304A00895CF93DF93CDB7DEB728970FB6F894AE
S11304B0DEBF0FBECDBF0E947C008FEF81BB2FEF4C
S11304C081EE94E0215080409040E1F700C00000AC
S11304D00E9408010E9415010E9429017C010E94CA
S11304E01F010E946E018C01B70180E090E00E9420
S11304F0F00326E933E44BE05DE30E947A0420E054
S113050030E040E05FE30E947A040E94BA036B018A
S11305107C0170937D0060937C0024E62C9DC001D7
S11305202D9D900D11246BE470E00E940F057093D3
S113053073006093720080918400909185008C1503
S11305409D0511F00E94D90061E081E00E94E6005F
S113055080E690E00E949A0061E089E00E94E60053
S11305604AE0BE016F5F7F4F8091720090917300EB
S11305700E943705CE0101960E949A0061E08CE04A
S11305800E94E60088E690E00E949A0080917C0038
S113059090917D0090938500809384002FEF86E7EF
S11305A091E0215080409040E1F700C00000B80184
S11305B080E090E00E94F00326E933E44BE05DE341
S11305C00E947A0420E030E040E05FE30E947A0475
S11305D00E94BA038B019C01709381006093800098
S11305E044E6409FC001419F900D11246BE470E0EC
S11305F00E940F0570937F0060937E0080917A00C3
S113060090917B008017910711F00E94D90062E05D
S113061081E00E94E6008AE690E00E949A0062E08F
S113062089E00E94E6004AE0BE016B5F7F4F809143
S11306307E0090917F000E943705CE0105960E94AE
S11306409A0062E08CE00E94E60088E690E00E9456
S11306509A00809180009091810090937B00809318
S11306607A002FEF86E791E0215080409040E1F737
S113067000C000000E94B3010E94C7017C010E94D7
S1130680BD010E940C028C01B70180E090E00E9441
S1130690F00329E23CE54FE05DE30E947A0420E0A8
S11306A030E040E05FE30E947A040E94BA03709352
S11306B075006093740070938300609382002FEF41
S11306C086E791E0215080409040E1F700C00000AF
S11306D0B80180E090E00E94F00329E23CE54FE09D
S11306E05DE30E947A0420E030E040E05FE30E9492
S11306F07A040E94BA03709379006093780070932F
S11307007700609376002FEF86E791E021508040D8
S11307109040E1F700C00000609174007091750092
S1130720072E000C880B990B0E94F20320E030E0A6
S113073040EF51E40E94B503882394F0609178005F
S113074070917900072E000C880B990B0E94F2031C
S113075020E030E040EF51E40E94B50388231CF40C
S11307608FEF82BBB7CE12BAB5CE0E942D0408F427
S113077081E008950E94C1036894B1110C9474043B
S113078008950E94590488F09F5798F0B92F99272B
S1130790B751B0F0E1F0660F771F881F991F1AF068
S11307A0BA95C9F714C0B13091F00E947304B1E056
S11307B008950C947304672F782F8827B85F39F055
S11307C0B93FCCF3869577956795B395D9F73EF401
S11307D090958095709561957F4F8F4F9F4F0895A9
S11307E0E89409C097FB3EF49095809570956195C7
S11307F07F4F8F4F9F4F9923A9F0F92F96E9BB277D
S11308009395F695879577956795B795F111F8CFF8
S1130810FAF4BB0F11F460FF1BC06F5F7F4F8F4F63
S11308209F4F16C0882311F096E911C0772321F059
S11308309EE8872F762F05C0662371F096E8862FF1
S113084070E060E02AF09A95660F771F881FDAF748
S1130850880F9695879597F90895990F0008550F75
S1130860AA0BE0E8FEEF16161706E807F907C0F032
S113087012161306E407F50798F0621B730B840B3A
S1130880950B39F40A2661F0232B242B252B21F414
S113089008950A2609F4A140A6958FEF811D811DB4
S11308A0089557FD9058440F551F59F05F3F71F05C
S11308B04795880F97FB991F61F09F3F79F08795C3
S11308C00895121613061406551FF2CF4695F1DF4C
S11308D008C0161617061806991FF1CF86957105DC
S11308E0610508940895E894BB2766277727CB0110
S11308F097F908950E948D040C94FE040E94F0045C
S113090038F00E94F70420F0952311F00C94E704CA
S11309100C94ED0411240C9474040E94510470F39B
S1130920959FC1F3950F50E0551F629FF001729F90
S1130930BB27F00DB11D639FAA27F00DB11DAA1F9F
S1130940649F6627B00DA11D661F829F2227B00DEC
S1130950A11D621F739FB00DA11D621F839FA00D77
S1130960611D221F749F3327A00D611D231F849FC7
S1130970600D211D822F762F6A2F11249F5750401E
S11309809AF0F1F088234AF0EE0FFF1FBB1F661F99
S1130990771F881F91505040A9F79E3F510580F062
S11309A00C94E7040C9474045F3FE4F3983ED4F38E
S11309B0869577956795B795F795E7959F5FC1F706
S11309C0FE2B880F911D9695879597F9089597F9B1
S11309D09F6780E870E060E008959FEF80EC0895E1
S11309E000240A941616170618060906089500240A
S11309F00A9412161306140605060895092E039484
S1130A00000C11F4882352F0BB0F40F4BF2B11F4F7
S1130A1060FF04C06F5F7F4F8F4F9F4F089597FB18
S1130A20072E16F4009407D077FD09D00E94230501
S1130A3007FC05D03EF4909581959F4F08957095DD
S1130A4061957F4F0895AA1BBB1B51E107C0AA1FE4
S1130A50BB1FA617B70710F0A61BB70B881F991F5B
S1130A605A95A9F780959095BC01CD010895BB27AF
S1130A704A3031F4992322F4BDE2909581959F4F39
S1130A800C944305BB27FB015527AA27880F991F00
S1130A90AA1FA41710F0A41B83955051B9F7A05DA9
S1130AA0AA3308F0A95DA193009779F7B111B19326
S1130AB01192CB010C945C05DC01FC01672F719150
S1130AC07723E1F7329704C07C916D937083629130
S10F0AD0AE17BF07C8F30895F894FFCFD9
S1130ADC42696E2030313A00250042696E20303272
S1050AEC3A00CA
S9030000FC
