:100000000C942A000C9434000C9434000C943400AA
:100010000C9434000C9434000C9434000C94340090
:100020000C9434000C9434000C9434000C94340080
:100030000C9434000C9434000C9434000C94340070
:100040000C9434000C9434000C9434000C94340060
:100050000C94340011241FBECFE5D8E0DEBFCDBF25
:100060000E9436000C9455000C94000087B3886001
:1000700087BB81B3806881BB8AB38F7E8ABB8AB31A
:100080008F7D8ABBCC9B04C088B3886088BB03C0CB
:1000900088B3877F88BBCD9B04C082B3806882BB56
:0E00A000F1CF82B38F7782BBEDCFF894FFCF04
:00000001FF
