:100000000C942A000C94F3010C940A020C944700FF
:100010000C9447000C9447000C9447000C94470044
:100020000C9447000C9447000C9447000C94CD01AD
:100030000C9447000C9447000C9447000C94470024
:100040000C9447000C9447000C9447000C94470014
:100050000C94470011241FBECFE5D8E0DEBFCDBF12
:1000600010E0A0E6B0E0E8E1F1E102C005900D92F9
:10007000AC36B107D9F720E0ACE6B0E001C01D9284
:10008000A438B207E1F70E9430020C948A080C945D
:1000900000002AB128692AB920B5266820BDDC01F4
:1000A000CB01880F991FAA1FBB1F880F991FAA1F7A
:1000B000BB1F9C01AD01220F331F441F551F220F90
:1000C000331F441F551F60E074E284EF90E00E94EC
:1000D00058058FEF820F89B9DA01C9010197A1098B
:1000E000B109892F9A2FAB2FBB2780BD08955F9B45
:1000F000FECF8CB108955D9BFECF8CB908950F9310
:100100001F93CF938C01C0E003C00E947B00CF5FA0
:10011000F801EC0FF11D80818111F7CFCF911F9174
:100120000F9108950F931F93CF93DF9300D000D0CA
:100130001F92CDB7DEB780E690E00E947F000E945C
:10014000770020E030E00DC089010F5F1F4FE1E034
:10015000F0E0EC0FFD1FE20FF31F80830E94770099
:1001600098018C3289F78E010F5F1F4FF801E20F63
:10017000F31F1082C8010E947A0590937900809342
:10018000780085E0F80111928A95E9F70E947700DE
:1001900020E030E00DC089010F5F1F4FE1E0F0E08B
:1001A000EC0FFD1FE20FF31F80830E947700980180
:1001B0008A3089F7E1E0F0E0EC0FFD1FE20FF31F5A
:1001C0001082CE0101960E947A0590937B00809365
:1001D0007A000F900F900F900F900F90DF91CF91BA
:1001E0001F910F91089581B3837F81BB82B38C608F
:1001F00082BB0895CF92DF92EF92FF9260917400DC
:100200007091750080E090E00E945D0420E030E095
:1002100040EA51E40E94BC0329E23CE543E252E497
:100220000E94EB046B017C0160916C0070916D0089
:1002300080916E0090916F000E945D04A70196016D
:100240000E9450030E942E0460936C0070936D0016
:1002500080936E0090936F006091760070917700AC
:1002600080E090E00E945D0420E030E040EA51E44C
:100270000E94BC0329E23CE543E252E40E94EB0405
:100280006B017C016091700070917100809172002F
:10029000909173000E945D04A70196010E94500393
:1002A0000E942E046093700070937100809372001E
:1002B00090937300609174007091750080E090E0FD
:1002C0000E945D042EE73AE64CE35FE30E94BC0324
:1002D00020E030E040EA51E40E94BC0320E030E03E
:1002E00040E752E40E94EB040E942E0460937C00DD
:1002F00070937D0080937E0090937F0060917600E4
:100300007091770080E090E00E945D042EE73AE66D
:100310004CE35FE30E94BC0320E030E040EA51E49C
:100320000E94BC0320E030E040E752E40E94EB046E
:100330000E942E046093800070938100809382005D
:1003400090938300109275001092740010927700C1
:100350001092760084E682BFFF90EF90DF90CF90FE
:10036000089580917800909179004F9734F08091B2
:100370007A0090917B004F9744F460E080E00E9407
:10038000090360E080E00E942C03089584E682BFA8
:1003900085E083BF81E089BF08951F920F920FB659
:1003A0000F9211242F933F934F935F936F937F93FB
:1003B0008F939F93AF93BF93EF93FF930E94FA00A5
:1003C0000E94B101FF91EF91BF91AF919F918F91E9
:1003D0007F916F915F914F913F912F910F900FBE41
:1003E0000F901F9018951F920F920FB60F92112425
:1003F0008F939F93809174009091750001969093D4
:100400007500809374009F918F910F900FBE0F9095
:100410001F9018951F920F920FB60F9211248F9371
:100420009F9380917600909177000196909377004A
:10043000809376009F918F910F900FBE0F901F9029
:1004400018950E94FB020E94F30080E48BBF83E0BA
:1004500085BF80E88BBF8CE085BF0E94C6010895F0
:10046000CF93DF93CDB7DEB7C456D1090FB6F8945A
:10047000DEBF0FBECDBF87B3816087BB87B382600D
:1004800087BB60E875E280E090E00E9449000E942E
:1004900021020E9492000FEF13ED20E30150104063
:1004A0002040E1F700C00000E8E7F0E083818F938F
:1004B00082818F9381818F9380818F9384E690E0F6
:1004C0009F938F938E010F5F1F4F1F930F930E9477
:1004D000A005C8010E947F0080917000909171007A
:1004E000A0917200B09173000FB6F894DEBF0FBEFA
:1004F000CDBF8D3216E09107A105B10508F06CC0A3
:10050000843F21E09207A105B105D8F56FEF81E0A6
:100510000E9409036FEF82E00E942C03809170001B
:1005200090917100A0917200B09173008D3731E00D
:100530009307A105B10508F4ACCF44EF51E060E0AA
:1005400070E08A019B01081B190B2A0B3B0BC901A8
:10055000B8012AE030E040E050E00E945805122F38
:10056000110F812F880F880F180F153008F410E035
:10057000612F81E00E940903612F82E00E942C0319
:1005800088CFAC01BD014E5051406109710946331D
:1005900051406105710548F460E080E00E94090364
:1005A00064E682E00E942C0374CF84349240A1055B
:1005B000B10549F460E080E00E94090360E080E05A
:1005C0000E942C0366CF6FEF81E00E9409036FEF5A
:1005D00082E00E942C035DCF60E080E00E9409036E
:1005E00060E080E00E942C0388B3816088BB88B300
:1005F0008D7F88BB4ECF81EA8FBD83E08EBD81B3F6
:10060000806281BB81B3806181BB84B38C6384BB16
:100610000895811107C085B38B7F85BB85B3877F24
:1006200085BB11C0823039F485B38B7F85BB85B320
:10063000886085BB08C0813031F485B3877F85BB76
:1006400085B3846085BB8FB790E89FBFF89470E056
:100650007BBD6ABD8FBF0895811107C085B38F7EB2
:1006600085BB85B38F7D85BB11C0823039F485B3DE
:100670008F7E85BB85B3806285BB08C0813031F435
:1006800085B38F7D85BB85B3806185BB8FB790E8CF
:100690009FBFF89470E079BD68BD8FBF0895505832
:1006A000BB27AA270E9467030C94B1040E94A304ED
:1006B00038F00E94AA0420F039F49F3F19F426F480
:1006C0000C94A0040EF4E095E7FB0C949A04E92F37
:1006D0000E94C20458F3BA1762077307840795078C
:1006E00020F079F4A6F50C94E4040EF4E0950B2EBA
:1006F000BA2FA02D0B01B90190010C01CA01A00174
:100700001124FF27591B99F0593F50F4503E68F1CE
:100710001A16F040A22F232F342F4427585FF3CF0F
:10072000469537952795A795F0405395C9F77EF4E0
:100730001F16BA0B620B730B840BBAF09150A1F029
:10074000FF0FBB1F661F771F881FC2F70EC0BA0FAF
:10075000621F731F841F48F4879577956795B79537
:10076000F7959E3F08F0B0CF9395880F08F0992732
:10077000EE0F9795879508950E94D0030C94B104CD
:100780000E94AA0458F00E94A30440F029F45F3F9D
:1007900029F00C949A0451110C94E5040C94A004D3
:1007A0000E94C20468F39923B1F3552391F3951B7A
:1007B000550BBB27AA2762177307840738F09F5F82
:1007C0005F4F220F331F441FAA1FA9F335D00E2EEF
:1007D0003AF0E0E832D091505040E695001CCAF75C
:1007E0002BD0FE2F29D0660F771F881FBB1F26171F
:1007F00037074807AB07B0E809F0BB0B802DBF01F6
:10080000FF2793585F4F3AF09E3F510578F00C94C4
:100810009A040C94E5045F3FE4F3983ED4F3869584
:1008200077956795B795F7959F5FC9F7880F911DE5
:100830009695879597F90895E1E0660F771F881FD1
:10084000BB1F621773078407BA0720F0621B730B84
:10085000840BBA0BEE1F88F7E09508950E94CA0436
:1008600088F09F5798F0B92F9927B751B0F0E1F071
:10087000660F771F881F991F1AF0BA95C9F714C021
:10088000B13091F00E94E404B1E008950C94E404C6
:10089000672F782F8827B85F39F0B93FCCF386955A
:1008A00077956795B395D9F73EF4909580957095B7
:1008B00061957F4F8F4F9F4F0895E89409C097FB34
:1008C0003EF490958095709561957F4F8F4F9F4F27
:1008D0009923A9F0F92F96E9BB279395F69587956B
:1008E00077956795B795F111F8CFFAF4BB0F11F42E
:1008F00060FF1BC06F5F7F4F8F4F9F4F16C08823D5
:1009000011F096E911C0772321F09EE8872F762F0A
:1009100005C0662371F096E8862F70E060E02AF04B
:100920009A95660F771F881FDAF7880F9695879537
:1009300097F9089597F99F6780E870E060E008955F
:100940009FEF80EC089500240A94161617061806E7
:100950000906089500240A941216130614060506C3
:100960000895092E0394000C11F4882352F0BB0F54
:1009700040F4BF2B11F460FF04C06F5F7F4F8F4FB7
:100980009F4F089557FD9058440F551F59F05F3FF2
:1009900071F04795880F97FB991F61F09F3F79F0A1
:1009A00087950895121613061406551FF2CF469523
:1009B000F1DF08C0161617061806991FF1CF8695A5
:1009C0007105610508940895E894BB276627772789
:1009D000CB0197F908950E94FE040C94B1040E9483
:1009E000A30438F00E94AA0420F0952311F00C947F
:1009F0009A040C94A00411240C94E5040E94C204EF
:100A000070F3959FC1F3950F50E0551F629FF00161
:100A1000729FBB27F00DB11D639FAA27F00DB11D7A
:100A2000AA1F649F6627B00DA11D661F829F222703
:100A3000B00DA11D621F739FB00DA11D621F839F8A
:100A4000A00D611D221F749F3327A00D611D231F60
:100A5000849F600D211D822F762F6A2F11249F57AE
:100A600050409AF0F1F088234AF0EE0FFF1FBB1FB1
:100A7000661F771F881F91505040A9F79E3F510570
:100A800080F00C949A040C94E5045F3FE4F3983EE4
:100A9000D4F3869577956795B795F795E7959F5F1A
:100AA000C1F7FE2B880F911D9695879597F90895AC
:100AB000A1E21A2EAA1BBB1BFD010DC0AA1FBB1F62
:100AC000EE1FFF1FA217B307E407F50720F0A21BD4
:100AD000B30BE40BF50B661F771F881F991F1A9441
:100AE00069F760957095809590959B01AC01BD016B
:100AF000CF010895FC0188279927E894219120329D
:100B0000E9F3293010F02E30C8F32B3241F02D32AA
:100B100039F4689404C00E949805820F911D2191B8
:100B200020532A30C0F31EF4909581959F4F08956D
:100B30007AE0979F902D879F802D910D1124089525
:100B4000AEE0B0E0E6EAF5E00C9461080D891E899C
:100B500086E08C831A8309838FEF9FE79E838D83C2
:100B6000AE01475E5F4F6F89788DCE0101960E947E
:100B7000C205EF81F885E00FF11F10822E96E4E0A8
:100B80000C947D08ABE0B0E0E8ECF5E00C94530881
:100B90006C017B018A01FC0117821682838181FF2F
:100BA000CCC1CE0101963C01F6019381F70193FD82
:100BB000859193FF81917F01882309F4BAC1853221
:100BC00039F493FD859193FF81917F01853229F45A
:100BD000B60190E00E94B907E7CF912C212C312C6F
:100BE000FFE1F315D8F08B3279F038F4803279F0E8
:100BF0008332A1F4232D20611DC08D3261F080333A
:100C000069F4232D216016C0832D8260382EE32DD8
:100C1000E4603E2E2AC0F32DF8601DC037FC2DC0C5
:100C200020ED280F2A3040F08E32B9F436FC81C115
:100C3000232D2064322E19C036FE06C08AE0989E0D
:100C4000200D1124922E11C0EAE02E9E200D1124B9
:100C5000222EF32DF0623F2E08C08C3621F4832D16
:100C60008068382E02C0883641F4F70193FD8591E3
:100C700093FF81917F018111B3CF982F9F7D955470
:100C8000933028F40C5F1F4F9FE399830DC0833688
:100C900031F0833771F0833509F059C021C0F80174
:100CA000808189830E5F1F4F88248394912C530188
:100CB00013C02801F2E04F0E511CF801A080B18052
:100CC00036FE03C0692D70E002C06FEF7FEFC501F3
:100CD0000E94AE074C018201F32DFF773F2E16C014
:100CE000280122E0420E511CF801A080B18036FE9E
:100CF00003C0692D70E002C06FEF7FEFC5010E9455
:100D0000A3074C01F32DF0683F2E820133FC1BC07A
:100D1000822D90E088169906B0F4B60180E290E04A
:100D20000E94B9072A94F4CFF50137FC859137FE6C
:100D300081915F01B60190E00E94B90721102A94C9
:100D400021E0821A91088114910471F7E8C0843679
:100D500011F0893641F5F80137FE07C060817181D5
:100D6000828193810C5F1F4F08C060817181072EC3
:100D7000000C880B990B0E5F1F4FF32DFF763F2E53
:100D800097FF09C090958095709561957F4F8F4F23
:100D90009F4FF0683F2E2AE030E0A3010E94F50744
:100DA000882E861845C0853731F4232D2F7EB22E2C
:100DB0002AE030E025C0932D997FB92E8F36C1F0FF
:100DC00018F4883579F0B5C0803719F0883721F0EC
:100DD000B0C0E92FE061BE2EB4FE0DC0FB2DF46063
:100DE000BF2E09C034FE0AC0292F2660B22E06C0CD
:100DF00028E030E005C020E130E002C020E132E030
:100E0000F801B7FE07C060817181828193810C5F18
:100E10001F4F06C06081718180E090E00E5F1F4F20
:100E2000A3010E94F507882E8618FB2DFF773F2E21
:100E300036FE0DC0232D2E7FA22E891458F434FEC9
:100E40000BC032FC09C0832D8E7EA82E05C0B82CA5
:100E5000A32C03C0B82C01C0B92CA4FE0FC0FE0106
:100E6000E80DF11D8081803321F49A2D997EA92E01
:100E700009C0A2FE06C0B394B39404C08A2D86783C
:100E800009F0B394A3FC11C0A0FE06C0B21488F40C
:100E9000280C922C9B180EC0B21460F4B60180E2AC
:100EA00090E00E94B907B394F7CFB21418F42B184E
:100EB00002C0982C212CA4FE10C0B60180E390E063
:100EC0000E94B907A2FE17C0A1FC03C088E790E00A
:100ED00002C088E590E0B6010CC08A2D867859F0F2
:100EE000A1FE02C08BE201C080E2A7FC8DE2B60148
:100EF00090E00E94B907891438F4B60180E390E0CD
:100F00000E94B9079A94F7CF8A94F301E80DF11D76
:100F10008081B60190E00E94B9078110F5CF2220B0
:100F200009F442CEB60180E290E00E94B9072A940B
:100F3000F6CFF6018681978102C08FEF9FEF2B9647
:100F4000E2E10C946F08FC010590615070400110C3
:100F5000D8F7809590958E0F9F1F0895FC016150E2
:100F6000704001900110D8F7809590958E0F9F1FCB
:100F700008950F931F93CF93DF93FB01238121FDEE
:100F800003C08FEF9FEF2CC022FF16C04681578110
:100F9000248135814217530744F4A081B1819D011A
:100FA0002F5F3F4F318320838C93268137812F5FC2
:100FB0003F4F3783268314C08B01EC01FB01008473
:100FC000F185E02D0995892BE1F6D80116968D91D2
:100FD0009C911797019617969C938E931697CE0126
:100FE000DF91CF911F910F910895FA01AA27283020
:100FF00051F1203181F1E8946F936E7F6E5F7F4FE6
:101000008F4F9F4FAF4FB1E03ED0B4E03CD0670F61
:10101000781F891F9A1FA11D680F791F8A1F911DB4
:10102000A11D6A0F711D811D911DA11D20D009F404
:1010300068943F912AE0269F11243019305D319346
:10104000DEF6CF010895462F4770405D4193B3E02F
:101050000FD0C9F7F6CF462F4F70405D4A3318F0D6
:10106000495D31FD4052419302D0A9F7EACFB4E087
:10107000A6959795879577956795BA95C9F700973F
:101080006105710508959B01AC010A2E06945795E0
:10109000479537952795BA95C9F7620F731F841F37
:1010A000951FA01D08952F923F924F925F926F92CD
:1010B0007F928F929F92AF92BF92CF92DF92EF92E8
:1010C000FF920F931F93CF93DF93CDB7DEB7CA1B69
:1010D000DB0B0FB6F894DEBF0FBECDBF09942A8894
:1010E000398848885F846E847D848C849B84AA843C
:1010F000B984C884DF80EE80FD800C811B81AA81C9
:10110000B981CE0FD11D0FB6F894DEBF0FBECDBF93
:08111000ED010895F894FFCFF2
:0C1118000D440D0025642C25640A000025
:00000001FF
