S01100005345434F4E444152592E737265636B
S11300000C942A000C9447000C9447000C9447006D
S11300100C9447000C9447000C9447000C94470040
S11300200C9447000C9447000C9447000C94470030
S11300300C9447000C9404040C9447000C9447005F
S11300400C9447000C9447000C9447000C94470010
S11300500C94470011241FBECFE5D8E0DEBFCDBF0E
S113006010E0A0E6B0E0E4EBF1E102C005900D92EF
S1130070A238B107D9F720E0A2E8B0E001C01D9290
S1130080A639B207E1F70E942C040C94D8080C940A
S113009000002AB128692AB920B5266820BDDC01F0
S11300A0CB01880F991FAA1FBB1F880F991FAA1F76
S11300B0BB1F9C01AD01220F331F441F551F220F8C
S11300C0331F441F551F60E074E284EF90E00E94E8
S11300D083058FEF820F89B9DA01C9010197A1095C
S11300E0B109892F9A2FAB2FBB2780BD08955F9B41
S11300F0FECF8CB108955D9BFECF8CB908950F930C
S11301001F93CF938C01C0E003C00E947B00CF5F9C
S1130110F801EC0FF11D80818111F7CFCF911F9170
S11301200F91089598B39F70282F207F922B98BB2E
S113013098B39E7F98BB98B3926098BB35E03A958C
S1130140F1F7000098B39D7F98BBEFE1F3E031979E
S1130150F1F700C0000028B3F0E18F9FC001112423
S1130160922F9F70892B88BB88B3826088BB35E04F
S11301703A95F1F7000088B38D7F88BB8FE39FE148
S11301800197F1F700C0000008958FEF87BB8FE55A
S11301909AEE0197F1F700C0000082E00E949200FD
S11301A088E20E9492008CE00E94920086E00E9405
S11301B0920081E00E9492008FE39FE10197F1F7A2
S11301C000C000000895FC0160E070E034C088B312
S11301D08F70907F982B98BB88B3816088BB88B35D
S11301E0826088BB85E08A95F1F7000088B38D7F33
S11301F088BB8FE193E00197F1F700C0000048B39A
S11302009C9180E1989F90011124942F9F70292B39
S113021028BB98B3926098BB95E09A95F1F70000DB
S113022098B39D7F98BB8FE39FE10197F1F700C0DE
S113023000006F5F7F4FDF01A60FB71F9C919111E4
S1130240C6CF089581E00E9492008FE39FE1019759
S1130250F1F700C0000080E80E9492000895CF9357
S1130260DF9300D0CDB7DEB790E8998390EC9A8302
S1130270E62FF0E0319721E030E02C0F3D1FE20F34
S1130280F31F9081890F81500E9492008FE891E0C2
S11302900197F1F700C000000F900F90DF91CF910C
S11302A008958AB381608ABB8AB382608ABB8AB3A9
S11302B084608ABB8AB388608ABB08958BB38160EB
S11302C08BBB80E58A95F1F78BB38E7F8BBB08954A
S11302D08BB382608BBB80E58A95F1F78BB38D7FFE
S11302E08BBB089580E090E0DC0105C0CE990AC084
S11302F00196A11DB11D803C27E2920729E0A207C7
S1130300B105A0F31FBC82E08EBD1DBC1CBC80E007
S113031090E0DC010AC0CE9B0FC02CB53DB5213660
S11303203A4E50F40196A11DB11D803C27E292077C
S113033029E0A207B10578F3803C9742A940B105B2
S113034081F08CB59DB5A0E0B0E01EBC81362AEEEC
S11303509207A105B10540F4B695A79597958795A1
S113036008958EEF9FEF08958EEF9FEF089580E03C
S113037090E0DC0105C0B2990AC00196A11DB11D2F
S1130380803C27E2920729E0A207B105A0F31FBC35
S113039082E08EBD1DBC1CBC80E090E0DC010AC084
S11303A0B29B0FC02CB53DB521363A4E50F40196A0
S11303B0A11DB11D803C27E2920729E0A207B105E7
S11303C078F3803C9742A940B10581F08CB59DB586
S11303D0A0E0B0E01EBC81362AEE9207A105B1056B
S11303E040F4B695A7959795879508958EEF9FEF5E
S11303F008958EEF9FEF08958BB384608BBB80E5E7
S11304008A95F1F78BB38B7F8BBB08958BB3886090
S11304108BBB80E58A95F1F78BB3877F8BBB0895FF
S113042080E090E0DC0105C09E990AC00196A11D00
S1130430B11D803C27E2920729E0A207B105A0F391
S11304401FBC82E08EBD1DBC1CBC80E090E0DC01C2
S11304500AC09E9B0FC02CB53DB521363A4E50F4D0
S11304600196A11DB11D803C27E2920729E0A20755
S1130470B10578F3803C9742A940B10581F08CB571
S11304809DB5A0E0B0E01EBC81362AEE9207A1051E
S1130490B10540F4B695A7959795879508958EEF85
S11304A09FEF08958EEF9FEF089580E090E0DC01C8
S11304B005C09F990AC00196A11DB11D803C27E289
S11304C0920729E0A207B105A0F31FBC82E08EBD0C
S11304D01DBC1CBC80E090E0DC010AC09F9B0FC0E7
S11304E02CB53DB521363A4E50F40196A11DB11DEF
S11304F0803C27E2920729E0A207B10578F3803C0B
S11305009742A940B10581F08CB59DB5A0E0B0E05B
S11305101EBC81362AEE9207A105B10540F4B695BA
S1130520A7959795879508958EEF9FEF08958EEF81
S11305309FEF08950F931F93CF93DF932FEF81EED7
S113054094E0215080409040E1F700C000000E94F8
S113055051010E945E010E9472018C010E94680197
S11305600E94B701EC01B80180E090E00E9474049D
S113057026E933E44BE05DE30E94DA0420E030E056
S113058040E05FE30E94DA040E943E048B019C0178
S113059070938B0060938A0044E6409FC001419FA2
S11305A0900D11246BE470E00E946F05709383003A
S11305B06093820080919400909195008017910738
S11305C011F00E94220161E081E00E942F0188E67F
S11305D090E00E94E30061E089E00E942F014AE07C
S11305E066E870E080918200909183000E94B905D2
S11305F086E890E00E94E30061E08CE00E942F0115
S113060080E790E00E94E30080918A0090918B0043
S11306109093950080939400EFEFF6E721E0E1508A
S1130620F0402040E1F700C00000BE0180E090E00F
S11306300E94740426E933E44BE05DE30E94DA048B
S113064020E030E040E05FE30E94DA040E943E04D0
S11306508B019C0170938F0060938E0044E6409F51
S1130660C001419F900D11246BE470E00E946F055E
S113067070938D0060938C0080918400909185002C
S11306808017910711F00E94220162E081E00E942C
S11306902F0182E790E00E94E30062E089E00E947B
S11306A02F014AE060E970E080918C0090918D0008
S11306B00E94B90580E990E00E94E30062E08CE0CA
S11306C00E942F0180E790E00E94E30080918E0059
S11306D090918F0090938500809384008FEF96E72C
S11306E0E1E081509040E040E1F700C000000E944A
S11306F0FC010E9410028C010E9406020E94550215
S1130700EC01B80180E090E00E94740429E23CE529
S11307104FE05DE30E94DA0420E030E040E05FE374
S11307200E94DA040E943E0470936700609366009E
S113073000E610E0F80171836083FFEF26E781E0B3
S1130740F15020408040E1F700C00000BE0180E08D
S113075090E00E94740429E23CE54FE05DE30E94CE
S1130760DA0420E030E040E05FE30E94DA040E9413
S11307703E047093650060936400F80173836283A0
S1130780FFEF26E781E0F15020408040E1F700C010
S11307900000DF91CF911F910F9108950F931F9344
S11307A0CF93DF93CDB7DEB7C456D1090FB6F89413
S11307B0DEBF0FBECDBFE0E6F0E083818F93828180
S11307C08F9381818F9380818F938AE790E09F93A9
S11307D08F938E010F5F1F4F1F930F930E94DE05AF
S11307E0C8010E947F000FB6F894DEBF0FBECDBFD4
S11307F0CC59DF4F0FB6F894DEBF0FBECDBFDF91EB
S1130800CF911F910F9108951F920F920FB60F92DF
S113081011242F933F934F935F936F937F938F9301
S11308209F93AF93BF93EF93FF930E947700843419
S113083011F40E94CE03FF91EF91BF91AF919F916C
S11308408F917F916F915F914F913F912F910F9075
S11308500FBE0F901F90189581E084BB789460E8D8
S113086075E280E090E00E9449000E94C5000E9469
S11308709A0285E38A95F1F70000F9CF0E944504B6
S11308806894B1110C94D40408950E94B90488F0BA
S11308909F5798F0B92F9927B751B0F0E1F0660F40
S11308A0771F881F991F1AF0BA95C9F714C0B13081
S11308B091F00E94D304B1E008950C94D304672FFF
S11308C0782F8827B85F39F0B93FCCF386957795B0
S11308D06795B395D9F73EF4909580957095619599
S11308E07F4F8F4F9F4F0895E89409C097FB3EF4C4
S11308F090958095709561957F4F8F4F9F4F992369
S1130900A9F0F92F96E9BB279395F69587957795E6
S11309106795B795F111F8CFFAF4BB0F11F460FFA6
S11309201BC06F5F7F4F8F4F9F4F16C0882311F0FE
S113093096E911C0772321F09EE8872F762F05C012
S1130940662371F096E8862F70E060E02AF09A95AD
S1130950660F771F881FDAF7880F9695879597F9A2
S1130960089557FD9058440F551F59F05F3F71F09B
S11309704795880F97FB991F61F09F3F79F0879502
S11309800895121613061406551FF2CF4695F1DF8B
S113099008C0161617061806991FF1CF869571051B
S11309A0610508940895E894BB2766277727CB014F
S11309B097F908950E94ED040C945E050E94500579
S11309C038F00E94570520F0952311F00C94470548
S11309D00C944D0511240C94D4040E94B10470F3BA
S11309E0959FC1F3950F50E0551F629FF001729FD0
S11309F0BB27F00DB11D639FAA27F00DB11DAA1FDF
S1130A00649F6627B00DA11D661F829F2227B00D2B
S1130A10A11D621F739FB00DA11D621F839FA00DB6
S1130A20611D221F749F3327A00D611D231F849F06
S1130A30600D211D822F762F6A2F11249F5750405D
S1130A409AF0F1F088234AF0EE0FFF1FBB1F661FD8
S1130A50771F881F91505040A9F79E3F510580F0A1
S1130A600C9447050C94D4045F3FE4F3983ED4F30C
S1130A70869577956795B795F795E7959F5FC1F745
S1130A80FE2B880F911D9695879597F9089597F9F0
S1130A909F6780E870E060E008959FEF80EC089520
S1130AA000240A9416161706180609060895002449
S1130AB00A9412161306140605060895092E0394C3
S1130AC0000C11F4882352F0BB0F40F4BF2B11F437
S1130AD060FF04C06F5F7F4F8F4F9F4F089597FB58
S1130AE0072E16F4009407D077FD09D00E94A505BF
S1130AF007FC05D03EF4909581959F4F089570951D
S1130B0061957F4F0895A1E21A2EAA1BBB1BFD011C
S1130B100DC0AA1FBB1FEE1FFF1FA217B307E407D8
S1130B20F50720F0A21BB30BE40BF50B661F771F30
S1130B30881F991F1A9469F7609570958095909510
S1130B409B01AC01BD01CF010895AA1BBB1B51E160
S1130B5007C0AA1FBB1FA617B70710F0A61BB70B29
S1130B60881F991F5A95A9F780959095BC01CD01CE
S1130B700895BB274A3031F4992322F4BDE29095BD
S1130B8081959F4F0C94C505BB27FB015527AA27C8
S1130B90880F991FAA1FA41710F0A41B8395505106
S1130BA0B9F7A05DAA3308F0A95DA193009779F77E
S1130BB0B111B1931192CB010C94F707AEE0B0E000
S1130BC0E4EEF5E00C94AF080D891E8986E08C8371
S1130BD01A8309838FEF9FE79E838D83AE01475E5F
S1130BE05F4F6F89788DCE0101960E940006EF81D8
S1130BF0F885E00FF11F10822E96E4E00C94CB08E8
S1130C00ABE0B0E0E6E0F6E00C94A1086C017B01F7
S1130C108A01FC0117821682838181FFCCC1CE0137
S1130C2001963C01F6019381F70193FD859193FFB1
S1130C3081917F01882309F4BAC1853239F493FD87
S1130C40859193FF81917F01853229F4B60190E06B
S1130C500E940708E7CF912C212C312CFFE1F315DA
S1130C60D8F08B3279F038F4803279F08332A1F401
S1130C70232D20611DC08D3261F0803369F4232D52
S1130C80216016C0832D8260382EE32DE4603E2E51
S1130C902AC0F32DF8601DC037FC2DC020ED280FAD
S1130CA02A3040F08E32B9F436FC81C1232D206401
S1130CB0322E19C036FE06C08AE0989E200D1124FB
S1130CC0922E11C0EAE02E9E200D1124222EF32D27
S1130CD0F0623F2E08C08C3621F4832D8068382EB4
S1130CE002C0883641F4F70193FD859193FF819109
S1130CF07F018111B3CF982F9F7D9554933028F4B1
S1130D000C5F1F4F9FE399830DC0833631F0833707
S1130D1071F0833509F059C021C0F80180818983BD
S1130D200E5F1F4F88248394912C530113C0280114
S1130D30F2E04F0E511CF801A080B18036FE03C0D2
S1130D40692D70E002C06FEF7FEFC5010E94EC07D0
S1130D504C018201F32DFF773F2E16C0280122E0BB
S1130D60420E511CF801A080B18036FE03C0692DEB
S1130D7070E002C06FEF7FEFC5010E94E1074C01F4
S1130D80F32DF0683F2E820133FC1BC0822D90E0CE
S1130D9088169906B0F4B60180E290E00E94070834
S1130DA02A94F4CFF50137FC859137FE81915F01D8
S1130DB0B60190E00E94070821102A9421E0821ACB
S1130DC091088114910471F7E8C0843611F08936D2
S1130DD041F5F80137FE07C06081718182819381FA
S1130DE00C5F1F4F08C060817181072E000C880BB7
S1130DF0990B0E5F1F4FF32DFF763F2E97FF09C00F
S1130E0090958095709561957F4F8F4F9F4FF068B7
S1130E103F2E2AE030E0A3010E944308882E861862
S1130E2045C0853731F4232D2F7EB22E2AE030E0E1
S1130E3025C0932D997FB92E8F36C1F018F48835CB
S1130E4079F0B5C0803719F0883721F0B0C0E92FA8
S1130E50E061BE2EB4FE0DC0FB2DF460BF2E09C0B0
S1130E6034FE0AC0292F2660B22E06C028E030E0E6
S1130E7005C020E130E002C020E132E0F801B7FE15
S1130E8007C060817181828193810C5F1F4F06C00E
S1130E906081718180E090E00E5F1F4FA3010E948A
S1130EA04308882E8618FB2DFF773F2E36FE0DC093
S1130EB0232D2E7FA22E891458F434FE0BC032FC4D
S1130EC009C0832D8E7EA82E05C0B82CA32C03C088
S1130ED0B82C01C0B92CA4FE0FC0FE01E80DF11D11
S1130EE08081803321F49A2D997EA92E09C0A2FE17
S1130EF006C0B394B39404C08A2D867809F0B394E1
S1130F00A3FC11C0A0FE06C0B21488F4280C922CD5
S1130F109B180EC0B21460F4B60180E290E00E9407
S1130F200708B394F7CFB21418F42B1802C0982C06
S1130F30212CA4FE10C0B60180E390E00E940708B3
S1130F40A2FE17C0A1FC03C088E790E002C088E5B8
S1130F5090E0B6010CC08A2D867859F0A1FE02C03B
S1130F608BE201C080E2A7FC8DE2B60190E00E9412
S1130F700708891438F4B60180E390E00E9407085A
S1130F809A94F7CF8A94F301E80DF11D8081B6019C
S1130F9090E00E9407088110F5CF222009F442CE88
S1130FA0B60180E290E00E9407082A94F6CFF60189
S1130FB08681978102C08FEF9FEF2B96E2E10C941C
S1130FC0BD08FC010590615070400110D8F7809570
S1130FD090958E0F9F1F0895FC0161507040019001
S1130FE00110D8F7809590958E0F9F1F0895DC010E
S1130FF0FC01672F71917723E1F7329704C07C914C
S11310006D9370836291AE17BF07C8F308950F9371
S11310101F93CF93DF93FB01238121FD03C08FEF47
S11310209FEF2CC022FF16C0468157812481358151
S11310304217530744F4A081B1819D012F5F3F4FB4
S1131040318320838C93268137812F5F3F4F3783F1
S1131050268314C08B01EC01FB010084F185E02D93
S11310600995892BE1F6D80116968D919C911797D5
S1131070019617969C938E931697CE01DF91CF918C
S11310801F910F910895FA01AA27283051F12031B8
S113109081F1E8946F936E7F6E5F7F4F8F4F9F4F08
S11310A0AF4FB1E03ED0B4E03CD0670F781F891F4A
S11310B09A1FA11D680F791F8A1F911DA11D6A0F18
S11310C0711D811D911DA11D20D009F468943F91CB
S11310D02AE0269F11243019305D3193DEF6CF01CA
S11310E00895462F4770405D4193B3E00FD0C9F790
S11310F0F6CF462F4F70405D4A3318F0495D31FDFD
S11311004052419302D0A9F7EACFB4E0A69597954F
S1131110879577956795BA95C9F700976105710525
S113112008959B01AC010A2E06945795479537956F
S11311302795BA95C9F7620F731F841F951FA01DC9
S113114008952F923F924F925F926F927F928F9267
S11311509F92AF92BF92CF92DF92EF92FF920F9342
S11311601F93CF93DF93CDB7DEB7CA1BDB0B0FB64C
S1131170F894DEBF0FBECDBF09942A883988488809
S11311805F846E847D848C849B84AA84B984C8849F
S1131190DF80EE80FD800C811B81AA81B981CE0F96
S11311A0D11D0FB6F894DEBF0FBECDBFED0108957B
S10711B0F894FFCFDD
S11311B41F001F001F001F0042696E2030313A00D7
S11311C4250042696E2030323A0025642C25640AD5
S10511D4000015
S9030000FC
